:020000040800F2
:1000000080060020CD010008F3030008EB03000880
:10001000EF030008CF0200084709000800000000B5
:100020000000000000000000000000007105000852
:10003000D302000800000000790400085D060008F3
:10004000E7010008E7010008E7010008E7010008F0
:10005000E7010008E7010008E7010008E7010008E0
:10006000E7010008E7010008E7010008E7010008D0
:10007000E7010008E7010008E7010008E7010008C0
:10008000E7010008E7010008E7010008E7010008B0
:10009000E7010008E7010008E7010008E7010008A0
:1000A000E7010008E7010008E7010008E701000890
:1000B000E7010008E7010008E7010008E701000880
:1000C000E7010008E7010008E7010008E701000870
:1000D000E7010008CD060008E7010008E701000875
:1000E000E7010008E7010008E7010008E701000850
:1000F000E7010008E7010008E7010008E701000840
:10010000E7010008E7010008E7010008E70100082F
:10011000E7010008E7010008E7010008E70100081F
:10012000E7010008E7010008E7010008E70100080F
:1001300000F002F800F03AF80AA090E8000C8244BF
:100140008344AAF10107DA4501D100F02FF8AFF29C
:10015000090EBAE80F0013F0010F18BFFB1A43F0A5
:10016000010318477408000094080000103A24BFE7
:1001700078C878C1FAD8520724BF30C830C144BF0C
:1001800004680C607047000000230024002500264E
:10019000103A28BF78C1FBD8520728BF30C148BFEA
:1001A0000B6070471FB51FBD10B510BD00F058F8AB
:1001B0001146FFF7F7FF00F0EFFB00F076F803B40D
:1001C000FFF7F2FF03BC00F07BF80000094880470E
:1001D00009480047FEE7FEE7FEE7FEE7FEE7FEE729
:1001E000FEE7FEE7FEE7FEE704480549054A064B41
:1001F00070470000610600083101000880000020FF
:100200008006002080020020800200204FF00002C3
:1002100000B5134694469646203922BFA0E80C50FC
:10022000A0E80C50B1F12001BFF4F7AF090728BFD7
:10023000A0E80C5048BF0CC05DF804EB890028BF53
:1002400040F8042B08BF704748BF20F8022B11F07C
:10025000804F18BF00F8012B7047704770477047F8
:10026000754600F029F8AE4605006946534620F071
:100270000700854618B020B5FFF7B6FFBDE820405F
:100280004FF000064FF000074FF000084FF0000B52
:1002900021F00701AC46ACE8C009ACE8C009ACE805
:1002A000C009ACE8C0098D4670470446AFF3008032
:1002B0002046FFF784FF0000004870471C00002024
:1002C00001491820ABBEFEE726000200704700BFC0
:1002D000FEE770472DE9F041024600250026002088
:1002E00000230024002791F803C00CF00F0591F8BB
:1002F00003C00CF0100CBCF1000F03D091F802C049
:100300004CEA050591F800C0BCF1000F31D014682B
:1003100000202BE04FF0010C0CFA00F3B1F800C004
:100320000CEA03069E4220D183004FF00F0C0CFA1A
:1003300003F7BC4305FA03FC4CEA040491F803C03C
:10034000BCF1280F06D14FF0010C0CFA00FCC2F8EA
:1003500014C00AE091F803C0BCF1480F05D14FF07A
:10036000010C0CFA00FCC2F810C0401C0828D1D3C4
:100370001460B1F800C0BCF1FF0F34DD54680020F8
:100380002EE000F1080C4FF0010808FA0CF3B1F868
:1003900000C00CEA03069E4221D183004FF00F0CEF
:1003A0000CFA03F7BC4305FA03FC4CEA040491F889
:1003B00003C0BCF1280F05D100F1080C08FA0CF8B5
:1003C000C2F8148091F803C0BCF1480F07D100F1C6
:1003D000080C4FF0010808FA0CF8C2F81080401C15
:1003E0000828CED35460BDE8F08100BFFEE700BF0F
:1003F000FEE7704770B5002100230F22C47804B3D4
:10040000154C246804F4E064C4F5E064210AC1F1E9
:100410000403CA40447804FA03F184781440214369
:1004200009010E4C0678A155047804F01F0501243B
:10043000AC4005786D11AD0005F1E025C5F800412F
:1004400009E0047804F01F050124AC40044D06784F
:10045000761145F8264070BD0CED00E000E400E0A8
:1004600080E100E002490143024A11607047000048
:100470000000FA050CED00E07047000029B1064AC3
:1004800092690243044B9A6104E0034A92698243F1
:10049000014B9A61704700000010024030B5002106
:1004A0000022002400232D4D6D6805F00C0121B1C0
:1004B000042905D0082923D105E0294D056022E053
:1004C000274D05601FE0254D6D6805F47012234D22
:1004D0006D6805F48034022505EB92421CB9214D6C
:1004E000554305600BE01D4D6D6805F400351DB1E9
:1004F0001C4D5543056002E0194D5543056002E06F
:10050000174D056000BF00BF144D6D6805F0F00188
:100510000909154D6B5C0568DD4045600F4D6D6840
:1005200005F4E061090A104D6B5C4568DD408560AB
:100530000A4D6D6805F46051C90A0B4D6B5C456846
:10054000DD40C560054D6D6805F44041890B074DE0
:100550006B5CC568B5FBF3F5056130BD001002406A
:1005600000127A0000093D00080000201800002059
:10057000704710B500F002F810BD00000CB5002067
:10058000019000903348006840F4803031490860A1
:1005900000BF3048006800F4003000900198401C13
:1005A0000190009818B90198B0F5A06FF1D12948D1
:1005B000006800F4003010B10120009001E000203C
:1005C00000900098012843D12348006840F01000B3
:1005D000214908600846006820F0030008600846CA
:1005E000006840F0020008601A48406819494860F5
:1005F0000846406848600846406840F480604860AB
:100600000846406820F47C1048600846406840F482
:10061000E81048600846006840F08070086000BF3D
:100620000C48006800F000700028F9D009484068C4
:1006300020F00300074948600846406840F0020087
:10064000486000BF0348406800F00C000828F9D15A
:100650000CBD000000100240002002407047000066
:1006600010B51348006840F00100114908600846C1
:100670004068104908400E494860084600680E4925
:1006800008400B4908600846006820F48020086094
:100690000846406820F4FE0048604FF41F00886060
:1006A000FFF767FF4FF000600449086010BD0000CD
:1006B000001002400000FFF8FFFFF6FE08ED00E02A
:1006C0000148008880B270470000002010B520214A
:1006D0000E4800F091F8012816D1422000F070F881
:1006E0000A4800F027F9C1B2094802680068401CB6
:1006F000074B18600748815418460068B0F5005F42
:1007000002D300201946086010BD000000380140E7
:10071000000000200010002010B586B00446012122
:1007200044F20400FFF7AAFE18208DF817000320FA
:100730008DF816004FF40070ADF8140005A91E489E
:10074000FFF7C8FD04208DF8170003208DF8160070
:100750004FF48060ADF8140005A91748FFF7BAFD03
:1007600025208DF8100003208DF811008DF812005F
:1007700001208DF8130004A8FFF73CFE0094002030
:10078000ADF80400ADF806000C20ADF80A0000201A
:10079000ADF80800ADF80C006946084800F05EF8B6
:1007A000012240F22551054800F033F801210348A9
:1007B00000F016F806B010BD0008014000380140F6
:1007C00010B504462146054800F0B9F800BF4021A5
:1007D000024800F011F80128F9D110BD003801409D
:1007E00021B1828942F40052828104E082894DF66F
:1007F000FF731A408281704702460020B1F5007FE6
:1008000000D100BF13880B400BB1012000E0002095
:100810007047F0B50346002400260025002040F66E
:100820006A17B94200D100BF1846C1F3421401F063
:100830001F06012707FA06F5012C01D10C3004E050
:10084000022C01D1103000E014301AB107682F4398
:10085000076002E00768AF430760F0BD2DE9F0478D
:1008600086B005460E460024A24600BFA1460027DA
:10087000B08900B100BF2F462C8A4CF6FF700440AF
:10088000F08804432C82AC894EF6F3100440B08803
:1008900031890843718908430443AC81AC8A4FF61F
:1008A000FF400440B0890443AC8201A8FFF7F6FD85
:1008B0001F48874202D1DDF810A001E0DDF80CA04E
:1008C000A88900F4004040B10AEBCA0000EB0A100E
:1008D00031684900B0FBF1F807E00AEBCA0000EB11
:1008E0000A1031688900B0FBF1F86420B8FBF0F021
:1008F00004012009642101FB1089A88900F400404B
:1009000040B1322000EBC900B0FBF1F000F007006D
:10091000044308E0322000EB09106421B0FBF1F041
:1009200000F00F0004432C8106B0BDE8F087000002
:100930000038014001468888C0F308007047C1F3C1
:1009400008028280704700BFFEE700000146114A9E
:1009500012884A434FF0E0235A6100229A611A46F6
:10096000126942F001021A6100BF4FF0E0221069E3
:1009700000F001021AB100F48032002AF5D04FF0E5
:10098000E022126922F001024FF0E0231A610022F6
:100990009A617047060000209AB0642101A8FFF711
:1009A00035FC4FF4A060FFF75DFD4FF4E130FFF739
:1009B000B3FE10E00024FFF783FE00280ADD00BF2D
:1009C000FFF77EFE04460A20FFF7C0FFFFF778FE20
:1009D000A042F5D100BFEDE7F809000800000020B3
:1009E0001C0000006C010008140A00081C00002014
:1009F000E42F000088010008000000000000000053
:100A000000000000010203040102030406070809B4
:040A100002040608CE
:0400000508000131BD
:00000001FF
